:100000000C945D000C9485000C9485000C94850084
:100010000C9485000C9485000C9485000C9485004C
:100020000C9485000C9485000C9485000C94B80306
:100030000C9485000C9485000C9485000C9485002C
:100040000C9416030C9485000C9486030C946003A6
:100050000C9485000C9485000C9485000C9485000C
:100060000C9485000C9485000000000024002700FB
:100070002A0000000000250028002B0004040404CE
:100080000404040402020202020203030303030342
:10009000010204081020408001020408102001021F
:1000A00004081020000000080002010000030407FB
:1000B0000000000000000000790411241FBECFEFF3
:1000C000D8E0DEBFCDBF11E0A0E0B1E0EAEFFCE098
:1000D00002C005900D92A631B107D9F721E0A6E143
:1000E000B1E001C01D92A03FB207E1F710E0CDE5FD
:1000F000D0E004C02197FE010E947006CC35D107E4
:10010000C9F70E94F2040C947B060C94000090E066
:10011000FC01EC55FF4F3491FC01E057FF4F249157
:10012000FC01E458FF4FE491EE2309F43BC0332374
:1001300039F1333091F038F43130A9F0323001F533
:1001400084B58F7D12C0373091F03830A1F0343053
:10015000B9F4809180008F7D03C0809180008F77FB
:10016000809380000DC084B58F7784BD09C08091D5
:10017000B0008F7703C08091B0008F7D8093B00076
:10018000F0E0EE0FFF1FEE58FF4FA591B4918FB72F
:10019000F894EC91611103C020952E2301C02E2B01
:1001A0002C938FBF08958E3008F08E508770806436
:1001B00080937C0080917A00806480937A008091A3
:1001C0007A0086FDFCCF809178002091790090E044
:1001D000922B08953FB7F8948091240190912501C6
:1001E000A0912601B091270126B5A89B05C02F3FFD
:1001F00019F00196A11DB11D3FBFBA2FA92F982F4D
:100200008827820F911DA11DB11DBC01CD0142E0C7
:10021000660F771F881F991F4A95D1F70895CF92CF
:10022000DF92EF92FF920F931F93CF93DF936C01B6
:100230007A018B01C0E0D0E0CE15DF0589F0D8014E
:100240006D918D01D601ED91FC910190F081E02D31
:10025000C6010995892B11F47E0102C02196ECCFCD
:10026000C701DF91CF911F910F91FF90EF90DF9029
:10027000CF900895089580E090E00895FC01538D9B
:10028000448D252F30E0842F90E0821B930B541770
:1002900010F0CF96089501970895FC01918D828DFD
:1002A000981761F0828DDF01A80FB11D5D968C91CA
:1002B000928D9F5F9F73928F90E008958FEF9FEFD5
:1002C0000895FC01918D828D981731F0828DE80F91
:1002D000F11D858D90E008958FEF9FEF0895FC014B
:1002E000918D228D892F90E0805C9F4F821B910918
:1002F0008F739927089588E291E00E946F0121E0B1
:10030000892B09F420E0822F0895FC01848DDF0100
:10031000A80FB11DA35ABF4F2C91848D90E0019678
:100320008F739927848FA689B7892C93A089B18967
:100330008C9180648C93938D848D981306C0028871
:10034000F389E02D80818F7D80830895EF92FF9265
:100350000F931F93CF93DF93EC0181E0888F9B8DE8
:100360008C8D981305C0E889F989808185FD24C0AA
:10037000F62E0B8D10E00F5F1F4F0F731127E02E2D
:100380008C8DE8120CC00FB607FCFACFE889F9890A
:10039000808185FFF5CFCE010E948501F1CF8B8D45
:1003A000FE01E80FF11DE35AFF4FF0820B8FEA893F
:1003B000FB898081806207C0EE89FF896083E889BC
:1003C000F98980818064808381E090E0DF91CF9122
:1003D0001F910F91FF90EF900895CF93DF93EC0161
:1003E000888D8823C9F0EA89FB89808185FD05C055
:1003F000A889B9898C9186FD0FC00FB607FCF5CF8F
:10040000808185FFF2CFA889B9898C9185FFEDCFD6
:10041000CE010E948501E7CFDF91CF91089580E062
:1004200090E0892B29F00E947B0181110C9400003F
:100430000895CF92DF92EF92FF92CF93DF93EC017A
:10044000603282E078070CF03DC077FD06C0653B66
:1004500071052CF064EB70E002C060E070E089810F
:1004600028E830E06901C81AD10887FDD394CC0C84
:10047000DD1CCC0CDD1C0D2C000CEE08FF088A8165
:1004800028E532E0281B310987FD3395220F331F01
:10049000220F331FC901330FAA0BBB0B9C01AD0107
:1004A0002C193D094E095F09DB010E942B0624EB44
:1004B00030E040E050E00E940106C20ED31EE41E70
:1004C000F51EB60188818C3080F5998148E850E0AE
:1004D000491B510997FD5395440F551F440F551F54
:1004E0006417750784F09A8128E532E0291B3109E9
:1004F00097FD3395220F331F220F331FAB012617B1
:1005000037070CF4A90142505109440F551F2FB76A
:10051000F89490E0FC01EE0FFF1F8E0F9F1FFC016F
:10052000EB53FE4F528341832FBFDF91CF91FF905A
:10053000EF90DF90CF900895CF93DF93DC018C9103
:100540008C3008F06DC09B013327F901E057FF4F55
:100550008491F901E458FF4F2491222399F030E06F
:10056000220F331FF901E859FF4FC591D491F901CA
:10057000EE58FF4F259134919FB7F894E881E82B0E
:10058000E8839FBF8C91E82FF0E09F01220F331F7B
:10059000E20FF31FEB53FE4F6F739081907C692B3A
:1005A000608311961C92119712961C9212976CE020
:1005B0000E9464069CE0899FB001112440E050E055
:1005C0009A01260F371FF901EE0FFF1F2E0F3F1F55
:1005D000F901EB53FE4F908196FD16C04F5F5F4FC0
:1005E0004C30510569F781110FC01092800082E0F4
:1005F000809381001092850010928400B19A8091BE
:100600006F00826080936F00EC91F0E0CF01880F63
:10061000991FE80FF91FEB53FE4F808180648083A0
:100620008C91DF91CF9108950E9476061F920F92D0
:100630000FB60F9211242F933F938F939F93AF93F5
:10064000BF938091200190912101A0912201B0914E
:10065000230130911F0123E0230F2D3720F4019651
:10066000A11DB11D05C026E8230F0296A11DB11DD5
:1006700020931F018093200190932101A0932201D8
:10068000B09323018091240190912501A09126012E
:10069000B09127010196A11DB11D80932401909373
:1006A0002501A0932601B0932701BF91AF919F919F
:1006B0008F913F912F910F900FBE0F901F90189523
:1006C0001F920F920FB60F9211242F933F934F93C7
:1006D0005F936F937F938F939F93AF93BF93EF93AA
:1006E000FF9388E291E00E948501FF91EF91BF9115
:1006F000AF919F918F917F916F915F914F913F91BA
:100700002F910F900FBE0F901F9018951F920F9270
:100710000FB60F9211242F938F939F93EF93FF9314
:10072000E0913801F09139018081E0913E01F09132
:100730003F0182FD12C09081809141018F5F8F73D4
:1007400020914201821751F0E0914101F0E0E85D13
:10075000FE4F958F8093410101C08081FF91EF9101
:100760009F918F912F910F900FBE0F901F90189512
:100770001F920F920FB60F9211242F933F934F9316
:100780005F936F937F938F939F93AF93BF93EF93F9
:10079000FF938091160187FF05C01092850010928B
:1007A00084001BC020911601022E000C330B809197
:1007B000E90190E02817390784F480911601082E8A
:1007C000000C990BFC01EE0FFF1F8E0F9F1FFC0109
:1007D000EB53FE4F808186FD15C0809116018F5F1F
:1007E0008093160120911601022E000C330B80918C
:1007F000E90190E028173907C4F4809116018C3084
:1008000064F113C080911601082E000C990BFC01B5
:10081000EE0FFF1F8E0F9F1FFC01EB53FE4F8081D9
:1008200060E08F730E948700D8CF80918400909100
:100830008500049680349C4918F480E49CE905C046
:100840008091840090918500049690938900809314
:1008500088008FEF809316013BC020918400309177
:10086000850080911601082E000C990BFC01EE0FFB
:10087000FF1F8E0F9F1FFC01EB53FE4F8181928162
:10088000820F931F909389008093880080911601B6
:10089000082E000C990BFC01EE0FFF1F8E0F9F1FFF
:1008A000FC01EB53FE4F808186FF12C08091160140
:1008B000082E000C990BFC01EE0FFF1F8E0F9F1FDF
:1008C000FC01EB53FE4F808161E08F730E94870033
:1008D000FF91EF91BF91AF919F918F917F916F9118
:1008E0005F914F913F912F910F900FBE0F901F90EE
:1008F000189510922B0110922A0188EE93E0A0E047
:10090000B0E080932C0190932D01A0932E01B09321
:100910002F0188E091E0909329018093280185ECD4
:1009200090E0909335018093340184EC90E09093B3
:1009300037018093360180EC90E0909339018093E9
:10094000380181EC90E090933B0180933A0182EC76
:1009500090E090933D0180933C0186EC90E0909371
:100960003F0180933E01109241011092420110928A
:100970004301109244018091E9018C30A0F491E090
:10098000980F9093E9018093ED0190E0FC01EE0F48
:10099000FF1F8E0F9F1FFC01EB53FE4F88EB9BE068
:1009A0009283818303C08FEF8093ED018091E901F1
:1009B0008C30A0F491E0980F9093E9018093EA01C4
:1009C00090E0FC01EE0FFF1F8E0F9F1FFC01EB5309
:1009D000FE4F88EB9BE09283818308958FEF809395
:1009E000EA010895789484B5826084BD84B58160FD
:1009F00084BD85B5826085BD85B5816085BD8091EA
:100A00006E00816080936E00109281008091810061
:100A10008260809381008091810081608093810059
:100A2000809180008160809380008091B10084601B
:100A30008093B1008091B00081608093B00080917C
:100A40007A00846080937A0080917A00826080933B
:100A50007A0080917A00816080937A0080917A0098
:100A6000806880937A001092C10069E070E08DEE9A
:100A700091E00E949C026AE070E08AEE91E00E94A0
:100A80009C02E0913801F091390182E08083E0918D
:100A90003401F09135011082E0913601F091370177
:100AA0008FEC808310924001E0913C01F0913D0178
:100AB00086E08083E0913A01F0913B018081806182
:100AC0008083E0913A01F0913B01808188608083CE
:100AD000E0913A01F0913B01808180688083E09150
:100AE0003A01F0913B0180818F7D80838EE00E94EE
:100AF000D3005C0190931E0180931D018FE00E9442
:100B0000D3004C0190931C0180931B0180E10E9453
:100B1000D3006C0190931A018093190181E10E9426
:100B2000D3007C0190931801809317018A149B04D1
:100B300054F4609102017091030116161706BCF47B
:100B4000615071090CC0A814B9048CF460910201C1
:100B500070910301643B710554F46F5F7F4F709394
:100B60000301609302018DEE91E00E941902CE1400
:100B7000DF0454F460910001709101016D3371053F
:100B8000BCF0615071090CC0EC14FD048CF4609150
:100B90000001709101016E36710554F46F5F7F4F53
:100BA00070930101609300018AEE91E00E941902A6
:100BB0000E94EA004B015C018FE0C82ED12CE12C91
:100BC000F12C0E94EA00DC01CB0188199909AA09DD
:100BD000BB09883E9340A105B10558F021E0C21A37
:100BE000D108E108F10888EE880E83E0981EA11C68
:100BF000B11CC114D104E104F10419F70E940F02E1
:100C000075CF052E97FB1EF400940E94180657FD21
:100C100007D00E94330607FC03D04EF40C9418064C
:100C200050954095309521953F4F4F4F5F4F089518
:100C300090958095709561957F4F8F4F9F4F089548
:100C40000E945506A59F900DB49F900DA49F800D06
:100C5000911D11240895B7FF0C9420060E942006D0
:100C6000821B930B0895A1E21A2EAA1BBB1BFD0148
:100C70000DC0AA1FBB1FEE1FFF1FA217B307E4077B
:100C8000F50720F0A21BB30BE40BF50B661F771FD3
:100C9000881F991F1A9469F76095709580959095B3
:100CA0009B01AC01BD01CF010895A29FB001B39F8C
:100CB000C001A39F700D811D1124911DB29F700D65
:100CC000811D1124911D0895991B79E004C0991F7D
:100CD000961708F0961B881F7A95C9F78095089596
:100CE000EE0FFF1F0590F491E02D099481E090E054
:0A0CF000F8940C947B06F894FFCFF3
:100CFA005A005A0000000000A6010F013E01ED0152
:060D0A006F014D016101C3
:00000001FF
